:020000040800F2
:10000000809C0120350200083D0200083F020008E4
:1000100041020008430200084502000800000000F9
:100020000000000000000000000000009D0100082A
:100030004902000800000000E10100088DC9000825
:100040004F0200084F0200084F0200084F0200084C
:100050004F0200084F0200084F0200084F0200083C
:100060004F0200084F0200084F0200084F0200082C
:100070004F0200084F0200084F0200084F0200081C
:100080004F0200084F0200084F0200084F0200080C
:100090004F0200084F0200084F0200084F020008FC
:1000A0004F0200084F0200084F0200084F020008EC
:1000B00039CC00084F0200084F0200084F02000828
:1000C0004F0200084F0200084F0200084F020008CC
:1000D0004F0200084F0200084F0200084F020008BC
:1000E0004F0200084F0200084F0200084F020008AC
:1000F0004F0200084F0200084F0200084F0200089C
:100100004F0200084F0200084F0200084F0200088B
:1001100059CD00084F0200084F0200084F020008A6
:100120004F0200084F0200084F0200084F0200086B
:100130004F0200084F0200084F0200084F0200085B
:100140004F0200084F0200084F020008C1AE00082D
:100150004F0200084F0200084F0200084F0200083B
:100160004F0200084F0200084F0200084F0200082B
:100170004F0200084F0200084F0200084F0200081B
:100180004F020008DFF810D000F0BAFF0048004727
:10019000A9680208AFF30080809C0120224B1968F7
:1001A0000868B0E8F00F80F30988BFF36F8F4FF055
:1001B000000080F311884EF00D0E70470000000023
:1001C00006480068006880F3088862B661B6BFF32D
:1001D0004F8FBFF36F8F00DF00BF00BF08ED00E05F
:1001E000EFF30980BFF36F8F0F4B1A6820E9F00F10
:1001F000106008B54FF0500080F31188BFF34F8FA7
:10020000BFF36F8F29F0C0FA4FF0000080F3118820
:10021000BDE8084019680868B0E8F00F80F3098865
:10022000BFF36F8F704700BFB4000020EFF305806D
:10023000704700000648804706480047FEE7FEE793
:10024000FEE7FEE7FEE7FEE7FEE7FEE7FEE7FEE786
:10025000C1C900088501000810B5431A934209D2AC
:100260008318881803E010F8011D03F8011D521EC1
:10027000F9D210BD40EA01039B0703D009E008C989
:10028000121F08C0042AFAD203E011F8013B00F85B
:10029000013B521EF9D210BDD2B201E000F8012B91
:1002A000491EFBD270470022F6E710B513460A46F6
:1002B00004461946FFF7F0FF204610BD421C10F817
:1002C000011B0029FBD1801A7047034611F8012B4E
:1002D00000F8012B002AF9D1184670470FB400B579
:1002E0008DB010A909900B9000914FF0FF300A904B
:1002F00000200C9005480690054807906A4609A81A
:100300000F9900F0FFFD0DB05DF814FB210F000800
:100310003F0F00082DE9FF5F1D464FF0FF3BD5E979
:10032000014691465F464FF00008A9697F1C01987D
:100330008847296A824688470028F6D1BAF1FF3FEC
:100340000CD024F4C064002E19DD600614D5BAF177
:100350002B0F09D0BAF12D0F0ED103E0584604B08F
:10036000BDE8F09F44F48064A9697F1C0198884728
:10037000761E8246002E02DDBAF1300F03D0B9F1AD
:10038000000F26D032E0A969761E44F400747F1C69
:10039000019888478246002E05DDBAF1780F06D015
:1003A000BAF1580F03D0B9F1000F10D01EE0B9F127
:1003B000000F02D0B9F1100F18D1A969761E24F4EC
:1003C00000747F1C019888478246102002E00820B4
:1003D00000E00A20814609E008FB0908A969761EA9
:1003E00044F400747F1C019888478246002E05DD86
:1003F0004946504600F072FD0028EDDAE96901989F
:100400008847A00502D46FF00100A8E7E00725D1D6
:10041000600613D5600502D5C8F1000000E0404633
:1004200029680A1D2A600968220501D5087015E0AF
:10043000220701D5088011E008600FE02868011D3F
:1004400029600068210502D580F8008006E02107B8
:1004500002D5A0F8008001E0C0F8008038467EE7B1
:100460002DE9FF4F087883B09946FF2805D0491C35
:100470002D2804D00024002008E000200BE00124F7
:10048000F9E700EB800003EB4000491C0B78FF2BE1
:10049000F7D104B1404200230293147819461D4657
:1004A0002D2C01D02B2C04D1521C2D2C13D0002428
:1004B0000294AA461478FF2C0FD00A25A3FB0578D6
:1004C00001FB05814FF0000C03FB0C11521CE319DA
:1004D0004AEB0101EEE70124EAE7814453EA010017
:1004E00002D019F5C87F06DA03980021C0E900118F
:1004F00007B0BDE8F08F0025AE4E2F46DFF8B8827A
:10050000184600F0C1FDCDE90001B9F1000002DAA2
:10051000C9F1000400E004460023A74A1AEB030BCC
:1005200042EB045A12E0E00707D02A463346384629
:10053000414600F0B4FA074688462A46334610463C
:10054000194600F0ACFA05460E466410002CEAD1BC
:10055000DDE90001B9F1000F5A46534606DA00F012
:1005600010FB3A46434600F00CFB05E000F097FA1A
:100570003A46434600F093FA029A0AB181F00041EC
:10058000039AC2E90001B3E72DE9FF4F1F468DB082
:10059000D7E901464FF0FF382E2045464FF00009BD
:1005A0000B90B9696D1C0E988847396A8246884756
:1005B0000028F6D1BAF1FF3F0AD024F4D064002E0F
:1005C00011DDBAF12B0F08D0BAF12D0F0BD102E0DB
:1005D000404611B08DE744F48064B9696D1C0E98F3
:1005E00088478246761E6946600501D52D2000E0C9
:1005F0002B208DF8000001F1010B0DF1200809E01E
:10060000B9696D1C0E98884782460F9844F40074AF
:10061000761E0560002E02DDBAF1300FF0D00B9986
:100620008A453ED144F0800406E00F99681CA9F188
:10063000010944F400740860B9696D1C761E0E98B7
:10064000884782463028F0D02BE00B998A4505D1A7
:10065000200603D444F08004761E18E0504621F0B2
:1006600093FD08B30DF11301761E44F400748B451D
:1006700008D2AAF130000BF8010B200607D5A9F12A
:10068000010003E0200602D409F101008146A00523
:1006900002D50F99681C0860B9696D1C0E988847CF
:1006A0008246002ED1DC53E0002E51DDBAF1650FF9
:1006B00002D0BAF1450F4BD1A00549D5B9696D1CDF
:1006C00024F44074761E0E9888478246002E0CDD76
:1006D0002B2804D0BAF12D0F07D144F48074B969E6
:1006E0006D1C0E9888478246761EE00501D52D21A7
:1006F00000E02B2108F8011BCDF82C8021E00DF142
:100700002901761E44F4007488450CD2AAF1300009
:1007100010F0FF0088F8000002D10B99884509D934
:1007200008F1010806E0E00501D5244801E042F2A5
:100730000F708146B9696D1C0E98884782460F98E4
:100740000560002E04DD504621F01EFD0028D6D1A4
:10075000F9690E988847FF208BF8000088F80000A0
:100760000020069007904B466A4608A906A8FFF7A6
:1007700077FEA00502D46FF001002AE714F0240FE1
:100780000AD0E00714D1DDE906123868031D3B608A
:100790000068C0E900120BE0DDE9060100F0F6FA9E
:1007A0000146E00704D13868021D3A600068016024
:1007B00028460EE7000014400000F03FF1D8FFFF8C
:1007C000F0B480EA0102D40F4200B2EB410F02D232
:1007D0000246084611464A0042D0C30DDDB2C1F3BD
:1007E000C752AD1A202D35DAC1F3160141F40002CB
:1007F00004B15242C5F1200602FA06F12A41104422
:10080000B3EBD05F23D0C4B1012DA0EBC35009DC02
:10081000F0BC4FF0004202EAC352DBB200F5000028
:1008200000F0A7BB400000F1807000EBC350A0F1C6
:10083000807040EAD170490009E0490841EAC0717E
:10084000A0EBC35000F50000400800EBC350F0BC23
:1008500000F086BB6142012202EB4101001BF6E77A
:10086000F0BC704781F00041AAE780F00040A7E7A4
:1008700080EA010210B502F00043400022D04A0095
:100880001FD0010E01EB1261C0F35600C2F35602F5
:1008900040F4000042F40002A0FB022000047F3973
:1008A000140400D0401C50EA124001D44000491EFC
:1008B000C2B20C0604EBD010401C4008802A02D0C3
:1008C00003E0002010BD20F00100002900DA002024
:1008D000184310BD30B480EA010202F0004530F048
:1008E000004221F0004013D090B1C30DD40DC2F3EB
:1008F0001601C0F31600E41A41F4000140F40002AE
:100900007D34914201D3641C00E04900002C02DADE
:1009100030BC002070474FF400000023914201D307
:10092000891A034340084FEA4101F7D151B191427E
:1009300002D14FF0004105E002D24FF0010101E089
:100940006FF0010103EBC450284430BC00F008BB39
:100950002DE9FE4F804681EA0300C00F0C4600904F
:1009600021F0004123F00045B8EB0200A94105D277
:100970004046214690461C460B46024623F0004066
:10098000104347D0270DC7F30A00C3F30A51029062
:10099000401A019040286BDAC3F3130040F4801B27
:1009A0000098924620B10023D2EB030A63EB0B0BB5
:1009B00001985946C0F14002504600F05EFA0646E2
:1009C0000D4650465946019A00F076FA10EB0800A1
:1009D0006141002487EA115284EAE7731A4340D048
:1009E000009A62B3019A012A4FEA075215DC001BF4
:1009F00061EB02014FF0004202EA0752CDE90042EA
:100A0000001C41F5801132462B4600F0EFFA03B08E
:100A1000BDE8F08F40462146F9E7001B61EB02017B
:100A2000001C41F5801300185B412018A2F5001747
:100A300047EB030140EAD570B6196D4111E06D082E
:100A40004FEA360645EAC0754FEA0752001B61EBD4
:100A50000201001C41F5801149084FEA30000019DD
:100A6000514132462B4603B0BDE8F04F00F0AFBA1B
:100A70000098012240000023D0EB020263EBE073F8
:100A8000009821464FEAE074B8EB000061EB0401E6
:100A9000E9E783F000435BE781F0004158E72DE987
:100AA000FE4F81EA030404F0004421F00041009469
:100AB0004FF0000B23F0004350EA01045ED052EAED
:100AC00003045BD0C3F30A54C1F30A552C44A4F2C7
:100AD000F3340194A0FB0254C1F3130141F48011DB
:100AE000C3F3130343F4801301FB024400FB034EE2
:100AF000840A970A44EA815447EA8357A4FB0768AB
:100B000002958D0A05FB07854FEA932C04FB0C54D4
:100B10002705029D4FEA065847EA1637B5EB080548
:100B20006EEB070C870E920E47EA811742EA83129A
:100B3000A7FB0201B6EB0B0164EB00042B0D43EAAB
:100B40000C335E1844EB1C50DA465146E7FB0201B9
:100B5000C5F313044FEA0B3343EA14534FEA04324C
:100B6000019C43EA0603A4F10C040294009CCDE925
:100B700000B400F03BFA03B0BDE8F08F002001465E
:100B8000F9E72DE9F04D81EA030404F0004B21F070
:100B9000004514464FF0000A23F0004150EA0502D8
:100BA00020D054EA01021DD0C5F30A570246C5F30E
:100BB0001303C1F31300C1F30A5640F4801543F444
:100BC0008013A7EB0608101BD64608F2FD3873EB1E
:100BD000050002D308F1010801E092185B41B8F169
:100BE000000F03DA00200146BDE8F08D00204FF42D
:100BF0008011064684460EE0171B73EB050705D3EC
:100C0000121B63EB050306434CEA010C49084FEA4B
:100C1000300092185B4150EA0107EDD152EA03001F
:100C200012D082EA040083EA0501084305D0101BB4
:100C3000AB4106D20122002306E000224FF0004320
:100C400002E06FF0010253101AEB06004CEB085162
:100C500010EB0A0041EB0B01BDE8F04D00F0B7B915
:100C6000C10F80EAE0700844CA079623002100F013
:100C700080B996230022114600F07BB90EB5C10F52
:100C800080EAE0700844CA07002140F233438DE84F
:100C90000E000A460B4600F0A9F903B000BD00F0B3
:100CA000004220F00040C10DC0F3160040F40000E7
:100CB0007F2901DA00207047962903DCC1F19601F3
:100CC000C84001E096398840002AF4D0404270477D
:100CD00020F00040C10DC0F3160040F400007F2951
:100CE00001DA00207047962903DCC1F19601C84063
:100CF000704796398840704770B5C1F30A5201F0C9
:100D000000450024C1F3130140F2FF3341F4801188
:100D10009A4201DA002070BD40F233439A42A2F2B7
:100D2000334203DC524200F0B7F800E090402C431D
:100D3000F1D0404270BD00F0004230F000400AD0D7
:100D4000C10D01F56071C0F3160042EA0151C208FD
:100D500040071143704700200146704730B5041E1C
:100D600071F1000404DB4FF00044404264EB0101E8
:100D7000141E73F1000405DB1C464FF00043524281
:100D800063EB04038B4208BF824230BD01F0004395
:100D900030B421F0004150EA010206D00A0DA2F55C
:100DA0006072C1F31301002A02DC30BC00207047DE
:100DB000440F44EAC104C100E01830BC00EBC2504B
:100DC00000F0CEB8002801DBC0F10040002901DBB3
:100DD000C1F1004181427047002801DBC0F10040B1
:100DE000002901DBC1F100418842704730B50B4654
:100DF000014600202022012409E021FA02F59D424B
:100E000005D303FA02F5491B04FA02F52844151E1E
:100E1000A2F10102F1DC30BD2DE9F05F05460020B2
:100E200092469B4688460646814640241BE028465B
:100E300041464746224600F02FF853465A46C01A0C
:100E4000914110D311461846224600F016F82D1A8B
:100E500067EB01084F4622460120002100F00DF803
:100E600017EB00094E41201EA4F10104DFDC4846C7
:100E700031462A464346BDE8F09F202A04DB203A4B
:100E800000FA02F1002070479140C2F1200320FADD
:100E900003F3194390407047202A04DB203A21FADB
:100EA00002F00021704721FA02F3D040C2F1200283
:100EB0009140084319467047202A06DBCB17203A99
:100EC00041FA02F043EAE07306E041FA02F3D0404F
:100ED000C2F1200291400843194670473A2800D2D7
:100EE000303820F02002412A01D3A2F13700884295
:100EF00001D34FF0FF30704702681144137801604E
:100F000018467047D16004495161044911620021BB
:100F10001161114600F00CB9F90E00082511000806
:100F2000426842B1016811F8013B23B1521EC0E989
:100F30000012184670470121C160881E7047426840
:100F40005AB1C368016843B983688B4205D0491E12
:100F5000521CC0E90012002070474FF0FF3070476C
:100F60000029A8BF7047401C490008BF20F00100BD
:100F7000704710B4B0FA80FC00FA0CF050EA01049B
:100F800004BF10BC704749B1CCF1200421FA04F42D
:100F900011FA0CF118BF012121430843A3EB0C0106
:100FA000CB1D4FEA00614FEA102042BF002010BC69
:100FB000704700EBC35010440029A4BF10BC704719
:100FC000401C490008BF20F0010010BC704710B55C
:100FD000141E73F1000408DA401C41F1000192185C
:100FE0005B411A4301D120F0010010BD2DE9F04D05
:100FF00092469B4611B1B1FA81F202E0B0FA80F25A
:1010000020329046FFF739FF04460F4640EA0A00B7
:1010100041EA0B0153465A46084313D0114653EA9E
:10102000010019D0C8F140025046FFF735FF0546D0
:101030000E46504659464246FFF71FFF084305D06B
:10104000012004E020463946BDE8F08D002005432C
:1010500046EAE0762C4337430A986305E40AA0EB9E
:1010600008000022FD0A44EA47540A3002D5002055
:101070000146E9E7010510196941DDE90845001954
:101080006941BDE8F04DA2E70EB540F2334202924D
:101090000022CDE900221346FFF7A8FF03B000BDF0
:1010A000C1F30A52C1F3130140F2FF3341F480113E
:1010B0009A4202DA00200146704740F233439A42D6
:1010C000A2F2334202DC5242FFF7E6BEFFF7D5BE82
:1010D00030B5041E71F1000404DB4FF000444042BF
:1010E00064EB0101141E73F1000405DB1C464FF094
:1010F0000043524263EB0403994208BF904230BD63
:10110000064C074D06E0E06840F0010394E8070054
:1011100098471034AC42F6D3FFF738F824DD0508C1
:1011200044DD0508C0B24FF4F05100F099B9000059
:101130002DE9F34F8BB04FF0000801F10C000C4685
:101140004FF0010B46460DF1080A0190626901213A
:1011500001989047051E2DD0252D2CD0216A884757
:10116000C0B16269012101989047216A884700282F
:10117000F7D1411E62690198904700E0761CA16991
:101180000B988847216A88470028F7D1E1690B98B6
:101190008847DBE7A1690B9888470746A84201D139
:1011A000761CD3E7E1690B9888477F1C02D1B8F120
:1011B000000F6FD047E1002762693D46394601982C
:1011C00090472A2804D1626901210198904701259E
:1011D000DFF888926269012101989047A0F13001FF
:1011E0000A290AD24F45E5DC07EB870100EB4107EE
:1011F000303FDFD445F01005ECE7E90601D46FF08D
:1012000000476C280AD04C2814D0682815D06A28CA
:101210000DD074281CD07A281AD01DE062690121F3
:10122000019890476C2802D045F0040514E045F081
:1012300002050DE045F020050AE0626901210198F0
:101240009047682802D045F0080505E045F40065A0
:101250006269012101989047C4E9015765283DD092
:1012600019DC58287AD00CDC452837D004DC252836
:1012700026D0412831D131E046282FD047282CD123
:101280002CE05B2877D0612828D063287CD06428A4
:1012900023D15AE0D1E06F2848D008DC66281DD061
:1012A00067281BD0692821D06E2816D127E0702826
:1012B00045D0732868D0752847D078280DD14DE0E7
:1012C000A1690B988847054625283FF469AFE16975
:1012D0000B9888476D1C3FF46AAFB4E023466A461A
:1012E0006FF001000B99FFF74FF99FE045F04000C8
:1012F0006060A80723464FF0000236D43EE0E807BE
:101300007FF447AF2068011D21600068290501D5E1
:1013100006701BE7290701D5068017E7A90703D543
:10132000F117C0E9006111E706600FE745F04000E2
:101330006060A80723464FF0080216D41EE040F66E
:101340000E0125EA0100606016E045F04000606093
:10135000A80723464FF00A0207D40FE045F04000EB
:101360006060A80708D5234610226FF001000B9992
:10137000AFF300805AE007E0234610226FF001002F
:101380000B99FEF7C7FF51E04FF000094F464B465F
:10139000632802D05B2807D041E02079C00601D441
:1013A0000120A06001273AE062690121019890477D
:1013B0005E2805D14FF001096269494601989047BE
:1013C000216939B900210A46534643F82120491CB6
:1013D0000829FADBB0B3216969B9C11700EBD16202
:1013E00053110AEB830122F01F02821A01200B68BD
:1013F000904003430B6062690121019890475D288A
:10140000E8D1B9F1000F09D00020514651F8202051
:10141000D24341F82020401C0828F7DB02AB2246CB
:1014200000976FF001000B99AFF3008000280CDAF1
:10143000401C08D1BBF1000F05D04FF0FF300DB0BC
:10144000BDE8F08FFFE74046F9E7E90701D108F171
:10145000010806444FF0000B78E60000CCCCCC0C21
:101460007F2801D9002208E0064A02EB5002C0079B
:10147000127800D1120902F00F02012090400840BA
:101480007047000078DA050870B58C1810F8015B19
:1014900015F0070301D110F8013B2A1106D110F80D
:1014A000012B03E010F8016B01F8016B5B1EF9D111
:1014B0002B0705D40023521E0DD401F8013BFAE797
:1014C00010F8013BCB1A921C03E013F8015B01F802
:1014D000015B521EF9D5A142D8D3002070BD02464F
:1014E00004207047034604207047034604207047D9
:1014F000002800DC4042704770B505460C4608489D
:101500000560204600F00EF800BF0548006800287E
:10151000FBD100214FF080400BF0B8FB70BD000004
:10152000400100203EB5044600214FF080400BF002
:10153000ADFB0022012188070BF0C4FB022C02D175
:101540000B20019004E0012C02D142F6DF600190F3
:101550000520ADF800000020ADF80800ADF802004D
:1015600069464FF080400BF0B7FB012188070BF074
:101570008AFB012188070BF07BFB012211469007B3
:101580000BF0A0FB012188070BF080FB3EBD0000A3
:1015900038B545680446014628460FF0F9F800289A
:1015A0002BD02068304A11280DD006DC0B2825D01E
:1015B0000E2833D00F2852D112E0282849D0B0F598
:1015C000107F4CD108E09268002A16D021462846A8
:1015D00001B0BDE830401047214628465268F7E781
:1015E000284602F0E5FF0090406E0468684603F06C
:1015F0003BF8002C01D02846A04738BD284602F011
:10160000D7FF0090683002F029FF009803216C306A
:1016100002F032FF684603F027F820E0E1684868EE
:1016200009680D2902D0202913D105E0002810DD1A
:10163000284617F0FEFD06E0002804DD2846BDE838
:10164000384017F0F6BD2846BDE83840022117F0B3
:1016500006BEE06818B90021284600F097F9204638
:10166000BDE838400FF014BD44020020F0B5044638
:1016700085B08069B4F90850668A0027CDE9026513
:10168000CDE900170490B4F90C00B4F91060C1184A
:10169000B4F90A00B4F90E50104433462A4600F05B
:1016A00007F80546616800F07AF905B02846F0BDF4
:1016B0002DE9F04F85B01F46DDE911B4DDE90E5686
:1016C00090468946824604F0CFF916484C34CDE95D
:1016D0000204CDE900563B464246494650460FF0CB
:1016E0001FFC040018D002F063FF1022594604903A
:1016F0000FF02CFA049830220B493430FEF7ACFD81
:10170000094D04990C3D2868486604A802F0ACFF16
:10171000286841682046884705F0B4FB05B020469C
:10172000BDE8F08F9115000850020020F0B5044686
:1017300080688B4989B051F82050606800287DD0BE
:10174000052804D006287AD0122879D1AEE0E869BD
:1017500000284FD095E80E008DE80F0004F110012D
:101760000FC906F089F9002655F8260005F009F89A
:10177000A169E8690A1A216901446069304403F0EB
:1017800029FEA169E8690A1A21690144E069801B00
:1017900003F020FEE169E8690A1A616901442069E1
:1017A000304403F0CDFEE169E8690A1A6169014439
:1017B000A069801B03F0C4FE761C022ED4DBA8684F
:1017C00004F0DFFFE069E9696669431A206942189D
:1017D0003144801C521E03F04DFFE169E869A269A3
:1017E0000B1A61690144101A401C921E03F042FF5B
:1017F000EE6913E05FF0000655F8260004F0C1FF23
:10180000E069831BA069821B6069811920693044EB
:1018100003F056FE761C022EEEDB0226D5E903010C
:10182000CDE900016169E06908444310A069891CA1
:10183000821B2069304403F091FD02E089E012E050
:101840008AE0D5E90501CDE90001E369606901217C
:10185000184401EB6001A0699B1E821B2069304483
:1018600003F07CFD78E0206802F0A2FE049020687E
:1018700011F096F840B1A06808B1002008E0049883
:10188000006F28B1012003E00498406F00B10220EE
:10189000049901EB8000C56E04A802F0E5FE002368
:1018A0001A462846216803F0C1FA55E0206802F084
:1018B0007FFE0490866EEEB3B0F95C70A168D1B380
:1018C000032942D05FF0000100EB8101406D0C6CF8
:1018D00004F080FF204604F054FF05A803F08CFFBD
:1018E000BDF81410A88B0144ADF81410BDF8181001
:1018F000081AADF81800BDF81600801CADF81600E7
:10190000BDF81A00801EADF81A000498B0F96020E6
:10191000B0F95E1005A804F084FD04A802F0A4FE4E
:10192000022004F0E1FF304602F042FE3A4605A9EB
:10193000079001E00BE006E003F098FB0DF11C00BE
:1019400002F092FE08E00121BEE70221BCE704A8F4
:10195000F6E7206810F04AFC09B00020F0BD000056
:1019600000D1050838B50D4604000ED004F07CF80F
:10197000204602F01DFE00904565684602F074FEA8
:10198000204610F017F905F07DFA38BD4FF480724B
:101990000029114601D00EF08FBF0EF0D1BE2DE907
:1019A000FF410E4605004FF0010421D004F05CF821
:1019B000284602F0FDFD0190876E01A8009702F015
:1019C00053FE3146684606F075FB78B10098002456
:1019D000B84208D0284602F0EBFD019000998166DC
:1019E00001A802F041FE284610F0E4F805F04AFA9A
:1019F00004B02046BDE8F08138B50C4605000FD094
:101A000004F032F8284602F0D3FD0090A0F85C40C4
:101A1000684602F029FE284610F0CCF805F032FAAC
:101A200038BDF8B515460C46060012D004F01CF877
:101A3000304602F0BDFD0090032C02D200EB840082
:101A40000564684602F010FE304610F0B3F805F069
:101A500019FAF8BD2DE9FC470E465FEA00097FD070
:101A600004F002F8484602F0A3FD009090F854708C
:101A7000D0F85880456BC46C684602F0F5FDB8F1AB
:101A8000000F04D0314648464246904761E0122E8E
:101A900018D006DC082E43D0102E3CD0112E06D1D3
:101AA00012E0132E21D01D2E43D01E2E3DD0202E0D
:101AB0004FDB17B1484612F0A4F9B1B2484616F010
:101AC000F3FF60B3611C27E04DB3284602F070FDC0
:101AD00005462146019005F0C3F84419204605F05B
:101AE0006DF801462346012210E0C5B1284602F0F8
:101AF0005FFD05462146019005F0B2F844192046E5
:101B000005F05CF8014623464FF0FF32484611F0DD
:101B100050FE01A81BE0611E484600F029FB18E0BA
:101B2000BCB1611E484600F023FB484612F069F93B
:101B30000FE0484602F03CFD0090012F12D0012139
:101B400080F854102146484600F012FB684602F027
:101B50008BFD484610F02EF800E001E005F092F908
:101B6000BDE8FC87002180F85410EFE77CB545689C
:101B70000446284610F014FF0646214628460EF07B
:101B800007FE002844D020680F283DD004DC0B2835
:101B90003FD00E2860D147E0A0F58070133804D004
:101BA000A0F580702D3857D11DE0284610F0A2F91D
:101BB000284602F0FDFC009010F8561F81F0040149
:101BC0000170684602F050FD0021284618F064FCC0
:101BD000284602F0EDFC0090D0F88400002110F0BF
:101BE00060F968461DE0E06860B1017A29B10168DA
:101BF000284600F001F9012100E00221284610F0FA
:101C000099F829E00321F9E70121284618F044FC5E
:101C10007CBD284602F0CCFC0190343002F01EFC62
:101C200001A802F021FD17E0B6B1E0684168002983
:101C300012DD01681B290FD006DC09290CD00A2906
:101C40000AD00D2904D107E0212905D0222903D08B
:101C50002846FFF7FFFE7CBD20460FF019FA7CBD39
:101C6000F0B587B00DF1300E9EE8F0104FF0000E89
:101C70008DE8F05000F028F807B0F0BDF0B587B05F
:101C800004460DF1080CD4E90567B0F90850408A04
:101C90008CE8E1000020CDE90010B4F90C00B4F9A3
:101CA0001060C118B4F90A00B4F90E50104433465C
:101CB0002A4600F009F8050002D0618A00F011FA06
:101CC00007B02846F0BD00002DE9F04F85B01F4653
:101CD000DDE91254DDE90E6A90468946834603F039
:101CE000C3FE0DF1040C4AF480501F496034009685
:101CF0008CE813003B464246494658460FF010F91F
:101D000004002AD002F054FC1022049011990EF025
:101D10001DFF0498242215496030FEF79DFA049AAD
:101D2000012082F85500681C00D0012082F888004C
:101D3000002D00DC08252DB2158700205087506348
:101D400004A86D1C02F090FC2946204616F097FD71
:101D500018B920460FF0D4F9002405F093F805B027
:101D60002046BDE8F08F00006D1B000880020020B7
:101D700001488068704700008002002038B50500E7
:101D80004FF000040BD003F06FFE284602F010FC69
:101D90000090846C684602F067FC05F073F82046FA
:101DA00038BDF8B515460C46060013D003F05CFEAE
:101DB000304602F0FDFB009038B1032C05D200EB59
:101DC0008400856730460FF0F5FE684602F04CFC53
:101DD00005F058F8F8BD70B50D46044603F044FE12
:101DE00034B12946204600F0C3F920460FF0E2FE48
:101DF000BDE8704005F046B82DE9F04186B00C46CC
:101E0000060055D003F030FE304602F0D1FB0090C2
:101E1000406B98B302F0CCFB03900098806E04F006
:101E2000D9FC804630460FF0F7FB0746039803F0D5
:101E300052FD0546009890F8601001F00301012959
:101E400016D002290DD0416EC06A00680844241AD9
:101E5000641E039805F09EFF0146002C0FDA002156
:101E600015E0781B401C00EBD070A4EB6004F0E799
:101E7000406E791B081A241A641CEAE713E0AC428E
:101E800005DC02462146039805F024FF0146304652
:101E900000F06EF903A802F0E7FB404604F09AFC5C
:101EA00030460FF087FE684602F0DEFB04F0EAFFE2
:101EB00006B0BDE8F08100002DE9F8431D46DDE9DC
:101EC000084916460F46804603F0CEFDB8F10000E3
:101ED00040D002F06DFB2149009081652049C16529
:101EE0000021C0E91271E0E90F650121047280F858
:101EF0001A90017690F84C70684602F0B5FB87B1F5
:101F0000284615F00BFF0546304615F007FF0CB1CB
:101F1000401C6D1C854200DD28460146404600F00D
:101F20003FF840461AF006FB404602F041FB0090A5
:101F300000F009F90B490978884205D10098C16C75
:101F40004046491C00F014F9684602F08DFB4046FB
:101F50000FF030FE04F096FFBDE8F883513201081F
:101F600035C50108BC01002000294FF0100101D047
:101F70000EF0A2BC0EF0E4BB38B50D4604000ED046
:101F800003F072FD204602F013FB009085662046A8
:101F90000FF010FE684602F067FB04F073FF38BDD7
:101FA0007CB50C46060033D003F05EFD304602F0EF
:101FB000FFFA0090B0F93810458FA14223D012DD0E
:101FC000406B80B102F0F4FA019005F0E3FEA0420C
:101FD00006DD2146019804F043FE019A00211154C8
:101FE00001A802F041FB684602F03EFB611B30464F
:101FF000491C16F044FC304602F0DAFA00900487DF
:1020000030460FF0D7FD684602F02EFB04F03AFF91
:102010007CBD2DE9FC4788465FEA00094FF00006C9
:1020200052D003F021FD484602F0C2FA0090B0F908
:102030003850446B684602F017FB0027B8F1000FD8
:1020400044D04CB1204602F0B3FA0190FEF736F9C5
:10205000461C01A802F008FB404605F09BFE044622
:10206000A84200DD2C462146404604F0F9FD451CFF
:10207000A91B484616F0D3FD08B3484602F098FA6B
:102080000090406B02F094FA2A4641460190FEF718
:10209000E3F80198284400F8017C0098C464B0F982
:1020A00038108C4205D190F85410012901D1641EDA
:1020B000C46401A802F0D8FA684602F0D5FA48468E
:1020C0000FF078FD04F0DEFEBDE8FC87484602F024
:1020D0006FFA0090343002F0C1F900984787C76466
:1020E000EAE738B50C4605000FD003F0BDFC2846E2
:1020F00002F05EFA009018B1046628460FF05AFD0F
:10210000684602F0B1FA04F0BDFE38BDF8B51546D8
:102110000C46060013D003F0A7FC304602F048FA44
:10212000009038B1032C05D200EB8400C566304620
:102130000FF040FD684602F097FA04F0A3FEF8BDE8
:10214000002219F00ABF38B50546406B002468B17B
:1021500002F02EFA00900446E96C04F081FD204460
:1021600004F02CFD0446684602F07EFA204638BD95
:102170001CB50C4602F01CFA0090406BF0B102F066
:1021800017FA019005F006FE009991F8542002B16B
:102190000122002C00DA0024844200DD0446B1F95B
:1021A0003800801AA04200DA0446C86CA04200D071
:1021B000CC640020086501A802F056FA684602F0D7
:1021C00053FA1CBD2DE9F047044640688EB0002745
:1021D000804602F0EDF90090B0F87CA0D0F868904D
:1021E000D0F88060D0F88850C06D00B107686846AC
:1021F00002F03AFA05E0696820468847002843D192
:102200002D68002DF7D12068172853D00CDC0F283B
:102210003DD004DC0B2877D00D2825D18BE0112888
:1022200010D0142820D13BE0262846D004DC1E28FC
:1022300051D0202818D18AE02A2816D0B0F5107F76
:1022400012D128E04046E56802F0B2F90290697ABE
:1022500039B9297A012904D130F87C1F41F4807101
:10226000018002A802F000FA75E0404602F0A0F9F1
:102270000090E16811B1C0F8841002E0D0F8840049
:10228000E060684602F0F0F90EB0BDE8F087D7B321
:102290004046B8475FE02146404617F055FFF3E758
:1022A00005A9404600F0CBFBE0680699016007995C
:1022B0004160E9E7C4F80C90E6E7E0680228E3D162
:1022C000CDF83080E0680D9027200A900AA9A06818
:1022D00010F076FDD8E7E068012804D000214046E0
:1022E00000F0BBFAD0E730460FF0CDFC68B13046C5
:1022F0000FF0F6FE30460FF089FB98B10121304611
:102300000EF0DAFA0EE026E02FE048460FF03CFF30
:102310000646404602F04CF90090C0F880606846DE
:1023200002F0A2F90121404600F097FA002EABD14D
:102330000020E060A8E75FEA0A700CD4E068C0689B
:1023400048B1007A38B140460FF0CAFE03E021469A
:10235000404616F0CBFF214640460EF019FA002801
:1023600092D020460EF094FE8EE7404602F020F90F
:102370000090703002F072F8684673E7F0B587B0ED
:10238000B0F908400DF10C0C0C9E876945688CE88B
:10239000F000448A0025CDE900150294B0F90C1034
:1023A000B0F91050B0F90E40B0F90A0019441044C9
:1023B0002B46224600F002F807B0F0BD2DE9F04FA1
:1023C0008BB09846DDE9155691468A468346149FA0
:1023D0001A9C03F049FB3348603445F48055CDE93D
:1023E0000204CDE9007543464A46514658460EF070
:1023F00097FD04004FD002F0DBF8302204901799CB
:102400000EF0A4FB0498282227493430FDF724FF5E
:1024100004981999244F4166A0F87C600026C0F802
:102420008060C666083FC0F888607968C16504A806
:1024300002F01AF905A9204600F001FB1B4841F201
:10244000827103960094CDE90110BDF91E00BDF91B
:102450001A10BDF91C20431ABDF918005B1C121A92
:10246000521C0EF05DFD064678684168204688479C
:10247000204602F09DF80490866604A802F0F4F865
:1024800042F20400054202D120460EF0B1FE204681
:10249000189900F03EFA04F0F5FC0BB02046BDE8B8
:1024A000F08F0000C5210008AC020020452D000877
:1024B0002DE9F041044694B0006800F0B7F908B186
:1024C000D94D01E0D84D2C35606815281ED00CDCA4
:1024D0000B281FD004DC00287ED005287DD12FE1F9
:1024E0000E287BD01228F9D141E1162806D01728F2
:1024F00008D0182808D01C28F0D109E0E86914B0E9
:10250000BDE8F081286AFAE7686AF8E7A86AF6E7A2
:102510006869F4E720680B901C200C90206802F09A
:1025200047F80390016D0BA88847064603A802F000
:102530009BF8022E0FDB95E807008DE80700D4E931
:1025400004023346A16905F05DFA20698719A06984
:10255000A0EB06082CE0286804F013F92169E8696B
:102560000A18521E606902F035FFA269E869111A63
:10257000491C606902F02EFFD4E904077F1C39462C
:1025800002F078FF3946A06902F074FF686804F031
:10259000F8F820693946401C02F06CFFA069394602
:1025A000401E02F067FFA0692769A0F10208BF1C66
:1025B000286804F0E6F842463946606902F00AFFEE
:1025C000686804F0DEF8606942463946401C02F053
:1025D00001FF686A022802E015E1B0E000E10BDDCE
:1025E000A86804F0CEF861696A6A881C8B180146F5
:1025F000424638465B1E27E0296AB14226DD606903
:10260000022E074600F1020801DB374401E007F122
:102610000207206901DB304401E000F10200226979
:102620003B460A444146A2F1010203F023F8022E80
:1026300002DBA069821B01E0A269921EA069E96920
:102640003B46401A4146401C03F014F8022E02DBC0
:102650006069064401E06669B61CE76928687F1E68
:1026600004F08FF83A463146206902F069FF3A4695
:102670003146A06902F064FFE7696868BF1E04F094
:1026800080F820693A463146401C02F059FFA069A3
:102690003A463146401E02F053FFE869022802DC48
:1026A000286A022823DDA86A022802DDE1690F1AE0
:1026B00001E0E769BF1EA86804F063F8E969022930
:1026C00009DD20693B46421800F1020C31466046A4
:1026D000521E02F0CFFF286A022808DDA269E869CD
:1026E0003B46101A3146401C921E02F0C3FF286878
:1026F00004F047F8D4E90620216902F06BFE68680F
:1027000004F03FF8D4E906202169401E491C521EFE
:1027100002F060FEA86A022811DDA1692669E46959
:10272000A1F10208271AA41EB61C7F1CA86804F099
:1027300028F8234642463946304602F09BFF71E0B6
:10274000208A00B2ADF81400A18A09B2ADF81610C3
:10275000228B12B2ADF81820A38B1BB2ADF81A3041
:102760002C69ED68CDE9005402F0F8FD5AE0208AAA
:10277000298B0844ADF81400A08AADF81600208B10
:10278000298B401AADF81800A08BADF81A0020680C
:1027900001F00EFF0390006FF0B1022004F0A4F8E6
:1027A000039890F87C10C1F3C00100EB8100006C2D
:1027B00003F0E7FF0398406B04F00CF80398006FF8
:1027C00001F0F6FE03990990B1F95A2005A902F02B
:1027D0004DFC09A801F048FF03A801F045FF21E0E6
:1027E000208AADF81400A08AADF81600208BADF851
:1027F0001800A08BADF81A00A86803F0C2FF05A866
:1028000002F064FF0EE0206801F0D2FE039030F881
:102810005A1F41F00C01018003A801F025FF206838
:102820000FF0E4FC00206AE60806002038B5050039
:102830004FF000040FD003F017F9284601F0B8FE5E
:10284000009090F87C00000700D50124684601F054
:102850000BFF04F017FB204638BD70B50D46040091
:1028600009D003F001F92946204618F081FDBDE8A2
:10287000704004F007BB70BD38B50C46050011D0A0
:1028800003F0F2F8284601F093FE0090816CA1421B
:1028900003D08464806E0FF08DF9684601F0E4FE89
:1028A00004F0F0FA38BD2DE9FC410D46804603F0F6
:1028B000DBF8B8F1000028D001F07AFE0190C16D7C
:1028C0008C6800F023F907460198456301A801F0E0
:1028D000CBFE22680121404690470646226803212C
:1028E00040469047054622680021404690470446EE
:1028F000404600F0F0F92B463246394640460094F7
:1029000000F079F940460FF055F904F0BBFABDE844
:10291000FC817CB50D4604001DD003F0A5F82046CF
:1029200001F046FE0090006F0190684601F09CFEA9
:10293000294601A805F0BEFB58B1204601F038FE3B
:10294000009001990167684601F08EFE20460FF065
:1029500031F904F097FA7CBD38B50C46050013D068
:1029600003F082F8284601F023FE0090B0F95A10D7
:10297000A14204D0A0F85A4028460FF01BF968463F
:1029800001F072FE04F07EFA38BD000038B50C4646
:10299000050015D003F068F8284601F009FE002272
:1029A000CDF8000000EB8201521C0C64022AF9D31E
:1029B000684601F059FE28460FF0FCF804F062FA70
:1029C00038BD2DE9FC470D465FEA00094FF00004D1
:1029D00032D003F049F8484601F0EAFD0190B0F921
:1029E0005440A54223D000F091F88046019801217F
:1029F000A0F85450C06D856848462A68904707463D
:102A00002A6803214846904706462A68002148461E
:102A100090470546484600F05EF933463A4641463F
:102A20004846009500F0E7F848460FF0C3F801A8C3
:102A300001F01AFE04F026FA2046BDE8FC872DE9D5
:102A4000F34F85B000270C46B846059801F0B0FD5D
:102A50000090C06D0121856805982A6890478246DC
:102A60002A6803210598904704902A680221059856
:102A7000904703902A6800210598904706460098E1
:102A80000FF00CFE834600980FF00FFE8146009871
:102A900090F83210890601D5B0F9588000F036F868
:102AA00005460098C06E10B10EF0CDFD074625809A
:102AB0006780A4F804A0049AABEB020006EB0802BE
:102AC000401E2A4420813A44E280039BA9EB030282
:102AD000521E6281A4F80CA020827019E681401E6B
:102AE0006082684601F0C0FDB4F90C000190B4F9B1
:102AF0001000029002AA01A9059800F039F8019887
:102B0000A0810298208207B0BDE8F08F10B5014681
:102B1000002091F83220920607D5B1F95400002820
:102B200003D1486B02F004FF801C10BD70B58AB061
:102B30000C46054601F03CFD0990C06D866809A869
:102B400001F092FD009534B1012C06D0022C0BD07F
:102B5000032C04D10AE0182000E0162001907168CF
:102B6000684688470AB070BD1520F7E71720F5E7DB
:102B70002DE9FC4117468846044601F019FD0090F6
:102B8000C16D056868468E6801F06EFD32680021EF
:102B900020469047064620460EF0F5FB27E000BF92
:102BA00001F006FD0190B0F900102AB2B0F904302E
:102BB000891A9A1AB0F90230A3EB2543B34210D117
:102BC00090F82800000605D53868884209DB491EC0
:102BD000396006E0D8F80000904202DC521CC8F8C8
:102BE000002001A801F040FD20460EF079FC040011
:102BF000D6D1BDE8FC812DE9FF4F83B00E460746D4
:102C0000DDF8409001F0D4FC0190C16D8D68FFF7B4
:102C10007DFF044601A801F027FD2A6801213846FE
:102C2000904783462A6803213846904782462A689F
:102C30000021384690470546B44207D105998B4597
:102C400004D106998A4501D14D4541D0A41B0026E7
:102C5000B04638460EF097FB38E001F0A9FC009032
:102C6000806A010601D5800502E0810528D50006AD
:102C7000002825DB24B12246114638460FF097F88C
:102C8000009890F8280000060AD50698A5EB0902DE
:102C9000A0EB0A0004FB16013846761C0FF03BF847
:102CA0000098008D80050BD50599A5EB0902ABEBCB
:102CB000010004FB080108F1010838460FF02BF869
:102CC000684601F0D1FC38460EF00AFC0700C4D17A
:102CD00007B0BDE8F08F70B586B0064601F068FC1D
:102CE0000590D0E91A4505A801F0BEFC54EA05009C
:102CF00026D069463046FFF7A2FEACB1BDF90620EA
:102D0000BDF9041020460EF0CAFFBDF90A00BDF956
:102D10000610421ABDF90800BDF90410521C411AF0
:102D20002046491C0FF0B7FA002D09D0BDF9060066
:102D3000BDF90210421ABDF9041028460EF0AFFF8B
:102D400006B070BD2DE9F0430446406889B00546E1
:102D50000EF0E4FB814601F02BFC0290D0F8488095
:102D6000D0F88070466E02A801F07EFC206817281B
:102D700053D008DC0E283AD00F2811D014284CD09C
:102D800015283DD149E01E281ED01F282AD0222810
:102D900040D0312834D10020E06009B0BDE8F08394
:102DA0006FF070414046884503D006F07DFB01F08E
:102DB000E3FE002EF1D0D4E902122068CDE904052B
:102DC000CDE9061204A81FE0E0680028E5D02FB185
:102DD000AF4203D038460FF083F9DEE728460FF004
:102DE000D3F9DAE7214648460DF0D2FCD5E7E06892
:102DF0004168002904DD00680928EFD00A2805D0C1
:102E00005EB12046C4F80490B047C6E728460FF0EC
:102E1000CAF9C2E7C4F80C80BFE720460EF038F9C3
:102E2000BBE7000051B18200A2F1C042126842F03B
:102E300001038200A2F1C042136009E08200A2F106
:102E4000C0421268034B1A408300A3F1C0431A60CA
:102E500070470000FEFF0F00D0E901121143C26865
:102E60001143026911434269114382691143C269E6
:102E70001143026A1143426A1143826A1143C26AD2
:102E80001143026B114302689200A2F1C04211602B
:102E9000816808290BD101688900A1F1C041096846
:102EA00041F0400201688900A1F1C0410A60416B14
:102EB0000968426B526841EA0211426B926841EA2A
:102EC0000221426B928941EA0241426B128A41EA35
:102ED0000251426B127D41EA0261426B92691143D9
:102EE0000268521C9200A2F1C0421160C16AB1F5A1
:102EF000804F1BD1816B0968826B526841EA0211D5
:102F0000826B926841EA0221826B128A41EA025185
:102F1000826B127D41EA0261826B92691143026801
:102F20009200A2F1C042C2F8041107E06FF07042B3
:102F300001688900A1F1C041C1F804217047000077
:102F400010B504460A2812D00D2C14D002F08CFDC6
:102F500009480068C0690168204688470748016839
:102F600009B120468847BDE8104003F08BBFBDE89B
:102F7000104001F0A1BF10BDC8010020F4010020E5
:102F80002DE9F0430446C56887B090468946002085
:102F900003F013FC064625B1287910B146F0020073
:102FA00001E026F0020003F008FC2069012558B179
:102FB000D4E902128DE8260003956388228804680C
:102FC00041464846A0471EE0124F134B2146386841
:102FD0001B68427CE068984730B9E088012801D03E
:102FE000002001E03868806BA288E388A168009522
:102FF000CDE90410CDE9023201956388228841466B
:10300000484605F049FE07B03046BDE8F04303F0FE
:10301000D4BB0000C8010020C00100201CB5002462
:10302000019401AC009400F0E7F81CBD2DE9FF4FBE
:1030300083B0814606988A46A0EB0A08109E0020BD
:103040000090A2EB09043568934654EA080018D0B2
:103050002046FEF74DFA07464046FEF749FA8742FA
:103060000BDA2046444680464846D14682465846BA
:10307000DDF818B0069001200090002C07DD2046F6
:1030800006E007B04846BDE8F04F00F04FB9604297
:10309000A0420AD04846D9466442C8F10008834697
:1030A0004FF0FF37DDF818A000E001275148B8F1D4
:1030B000000F11D004EBD4714FEA610B01DACBF1B0
:1030C000000B4C480068807E88B3002F02DA30681D
:1030D0002044306000257BE000990029016821D060
:1030E000897E11B10027804615E007B05A4649464F
:1030F0005046BDE8F04F05F031BF28466D1C18F072
:103100005FFA38B9D8F8000009EB0701406E426851
:10311000504690477F1CA742EFDD6D1E356007B01B
:10312000BDE8F08F8A7E1AB10027804617E019E0CB
:10313000486E5A465146036807B04846BDE8F04F0E
:10314000184728466D1C18F03BFA38B9D8F800101B
:1031500009EB0700496E4A68514690477F1CA74219
:10316000EFDDDAE700250FE008FB05B090FBF4F196
:1031700001EB0A00009951B11E4A09EB05011268E2
:10318000526E526890476D1CA542EDDDC7E71949A4
:1031900009EB05030968496E4A6801461846F1E7DC
:1031A00008FB05B090FBF4F101EB0A0001903068D8
:1031B0003844306018F004FA48B9009890B10D48CE
:1031C00009EB05010068406E4268019890476D1C4C
:1031D000A542E5DD3068002F01DA20443060C01BD5
:1031E00030609CE7034909EB05000968496E4A68AD
:1031F0000199EBE7C80100202DE9FF470F46404940
:103200001646804609680C981D460A7E012A1CD085
:10321000A8EB0600791B50EA01031CD0A2F10109BA
:1032200019F040FF00F58060824605F032F800FB9F
:1032300009F4504605F032F800FB09F1002C0CDAD5
:10324000C4F50070801240420AE0009032463946D0
:103250004046FFF7EBFEBDE8FF8704F50074A012BF
:10326000002904DAC1F5007189124C4202E001F52F
:1032700000718C12002804DD411C01EBD171491052
:1032800003E000EBD0714910401E00EBD0704210FB
:10329000002C04DD601C00EBD070401003E004EB58
:1032A000D4704010641E04EBD47308EB0104ADF835
:1032B00000403C18ADF80240A8EB02045B10B21AC3
:1032C000ADF80440ADF808203144FC1AEA1AADF814
:1032D0000C102844ADF80A20ADF80E000023ADF81C
:1032E00006401A460421684600F08EF839464046EA
:1032F00013F0DEF82946304613F0DAF8ABE70000A9
:10330000C8010020F8B5084E0546009230680C460A
:103310002346B0F92810B0F926002A46FFF76CFFC3
:103320003068C5840485F8BDC8010020064A1368CA
:103330001A7E012A05D0521E02EBD272521000F002
:1033400005B85A6E52681047C80100202DE9F05F99
:103350000646884640F2C32002FB00F14FF47A7023
:1033600091FBF0F702FB02F102EBD27001EB600B74
:103370001446B118234A301B7F1C1268526E136822
:103380000A4641469847012538E000BF05FB05F095
:1033900004FB040159451CDDBC4219DD194B06EB49
:1033A000050AA6EB05091B68AAF1010208EB040156
:1033B0005B6E09F101001B689847124BAAF10102EC
:1033C000A8EB04011B6809F101005B6E1B689847BC
:1033D000641E0C4B3219301B1B68924608EB05012A
:1033E0005B6E81461B689847064B5246A8EB050169
:1033F0001B6848465B6E1B6898476D1CBD42C5DD67
:10340000BDE8F09FC80100202DE9FF4F43F6FF748F
:103410000F46664283B09B46814600210BE000BF09
:1034200009EB8100B0F90200A04200DA0446B04284
:1034300000DD0646491CB942F2DB67480068406976
:1034400000280DD0B0F906101A46A1EB0B01B142CD
:1034500000DA0E46B0F90200801AA04200DD0446F0
:10346000B4E0DFF878A100200546CAF8000088E043
:10347000781E854201DA6B1C00E0002309EB850C05
:1034800009EB8302BCF90200B2F90210A04244D158
:10349000A14215D139F92330059A39F9251003EBEA
:1034A000020C4D4A05981268084404EB0B01526E59
:1034B0006045136801DA62462AE00246604627E06A
:1034C0002846A4464FF000087A1E0BE008B1401EC3
:1034D00000E0781E09EB8003B3F90230634504D1A4
:1034E00008F101089045F1DB2346A34248D01A1B9E
:1034F00039F92500A1EB040C059B92EA0C0F09D4C5
:10350000354A184404EB0B011268526E13680246E8
:10351000984735E00FF04AFD32E0A14230D001DBA0
:10352000A04203DDA0422BDBA14229DCE046884219
:103530000ADC0346A04223DC0846A14220DBB8F99E
:1035400000C0B2F9001008E00B46A14218DCA0420E
:1035500016DBB2F900C0B8F90010E21AA1EB0C01B9
:1035600051430029A0EB030202DD01EB620102E0FE
:10357000A1EB6201491CC01A91FBF0F06044C9E75D
:103580006D1CBD42FFF674AF0598009004EB0B0074
:10359000019000208046054613E01149B8F1000F64
:1035A00031F915A009D0009901EB0A0208440A4933
:1035B0000968496E0B680199984788F001085046E0
:1035C0006D1C064909688D42E7DB641CB4427FF735
:1035D00048AF07B0BDE8F08FC8010020B807002051
:1035E0004C840120024A1268D08411857047000083
:1035F000C801002010B5002003F0B8F86FF07F403C
:1036000003F0BFF8012003F051F9002003F05CF94A
:10361000002003F069F9002003F0CFF804480068A7
:1036200003F0D8F8BDE81040002003F011B9000005
:10363000C4010020F0B50A4600210023002400BF89
:103640003DE0012505FA01F3156805EA03049C42F3
:1036500034D105684F000326BE40B5430560157997
:103660004E00B5400668354305601579012D02D03E
:103670001579022D16D185684F000326BE40B5434B
:10368000856055794E00B54086683543856045684C
:1036900001268E40B5434560456896798E40B6B2A6
:1036A00035434560C5684F000326BE40B543C5603D
:1036B000D5794E00B540C6683543C560491C102910
:1036C000BFD3F0BDF0B5002300244D07ED0E02FA84
:1036D00005F3CE1000F1200555F826504E07F70EE1
:1036E0000F26BE40B543CF1000F1200646F8275004
:1036F000CE1000F1200555F8265045EA0304CE10FF
:1037000000F1200545F82640F0BD0246002013696F
:103710000B400BB1012000E000207047418370474F
:103720000183704733B583B004001BD002F09CF9CD
:10373000204600F03DFF0190456E01A800F094FF87
:10374000049800F035FF00908460684600F08CFF1C
:10375000042204A9284600F0ABFF20460EF02AFA06
:1037600003F090FB05B030BD33B583B004001BD02F
:1037700002F07AF9204600F01BFF0190856E01A847
:1037800000F072FF049800F013FF00908460684618
:1037900000F06AFF042204A9284600F089FF2046B1
:1037A0000EF008FA03F06EFB05B030BD2DE9F041D4
:1037B00004460025D4E90007B0F5407F00D101257B
:1037C000214638460CF0E4FF064615B1384615F0A0
:1037D00074FB002E2FD02068052806D00B280ED0B1
:1037E0000F2806D0262821D10EE0384615F065FBBB
:1037F0001CE03846E168BDE8F04115F0B7BE384638
:10380000BDE8F04115F0A1BDE06805280ED13846AD
:103810000DF0BEFEA168884205D038460DF0A8FE26
:10382000A168884202D1606816F03EFC2046BDE8DF
:10383000F0410DF02DBCBDE8F081F0B585B0B0F9D8
:103840000850468A84690296CDE903540027CDE9E1
:103850000017B0F90C10B0F91050B0F90E40B0F9E3
:103860000A00194410442B46224600F003F805B024
:10387000F0BD00002DE9F04F85B09846DDE90E5609
:1038800091468A468346109F129C02F0EDF8184834
:103890006C34CDE90204CDE9005643464A46514610
:1038A00058460DF03DFB04001BD000F03EFF0546DE
:1038B00000F03BFF0646204600F07AFE0490C0E987
:1038C0001956002211990DF041F904983022094946
:1038D0003430FCF7C1FC0498A0F8787004A800F01C
:1038E000C3FE03F0CFFA05B02046BDE8F08F00001C
:1038F000AD370008D40200207CB50C46050015D079
:1039000002F0B2F8284600F053FE0090406A00F042
:103910004FFE0146019004232246009800F083F9EF
:1039200001A800F0A1FE684600F09EFE03F0AAFA8E
:103930007CBD38B504000FD002F096F8204600F0A8
:1039400037FE00210090016180680EF033F968466F
:1039500000F08AFE03F096FA38BD00002DE9F0432E
:1039600085B01D4690460F46814602F07DF8342012
:1039700000F02BFD060029D0B80000F026FD040061
:103980000ED0B8F1000F0BD055B1204600F010FE5C
:10399000AA0041460090FCF75FFC684600F064FE18
:1039A000304600F005FE02900121446280F82D109F
:1039B0000522826280F82C10074902C0074940F8AE
:1039C0000C1B80E8A00202A800F04EFE03F05AFA99
:1039D00005B03046BDE8F08319970108DB93010874
:1039E00038B50C46050011D002F03EF8284600F02C
:1039F000DFFD0090C169A14203D0C46180680EF070
:103A0000D9F8684600F030FE03F03CFA38BD38B50E
:103A10000C46050011D002F027F8284600F0C8FD3A
:103A20000090016AA14203D0046280680EF0C2F8DF
:103A3000684600F019FE03F025FA38BD2DE9F84379
:103A4000984615460E46074602F00EF8302000F064
:103A5000BCFC040014D000F0ABFD0090C0E905767A
:103A600085840A4A4FF07E51C0F81C808162D2E9F9
:103A70000012C0E9031206490160684600F0F4FD37
:103A800003F000FA2046BDE8F8830000040300209C
:103A900045980108F8B50D4606004FF0000411D016
:103AA00001F0E2FF304600F083FD0090046AAC4272
:103AB00003D0056280680EF07DF8684600F0D4FD02
:103AC00003F0E0F92046F8BDF8B50D4606004FF0CA
:103AD000000411D001F0C8FF304600F069FD0090ED
:103AE000C468AC4203D0C56080680EF063F86846D5
:103AF00000F0BAFD03F0C6F92046F8BD2DE9F84301
:103B00001D46DDF8208016460F46040015D001F052
:103B1000ABFF204600F04CFD0090C0F86080476588
:103B2000C0E91665684600F09FFD204615F0C5F90E
:103B300020460EF03FF803F0A5F9BDE8F883F8B58C
:103B40000D4606004FF0000411D001F08DFF304605
:103B500000F02EFD0090446CAC4203D0456430462A
:103B60000EF028F8684600F07FFD03F08BF9204640
:103B7000F8BDF8B50D4606004FF0000411D001F075
:103B800073FF304600F014FD0090846CAC4203D00B
:103B9000856430460EF00EF8684600F065FD03F0CF
:103BA00071F92046F8BDF8B50D4606004FF0000447
:103BB0001BD001F059FF304600F0FAFC0090B0F83D
:103BC000781011F0010403D055B921F0010102E091
:103BD00035B141F00101A0F8781030460DF0EAFF50
:103BE000684600F041FD03F04DF92046F8BDF8B5F8
:103BF0000D4606004FF0000413D001F035FF3046AB
:103C000000F0D6FC009090F86C40AC4204D080F8F4
:103C10006C5030460DF0CEFF684600F025FD03F0F5
:103C200031F92046F8BD2DE9F041044680681D4673
:103C300017460E46002826D0D4E9040290420ED141
:103C4000521E6A4371193046FCF706FB20692A466A
:103C5000401E05FB00603946FCF7FEFA0EE005FB4E
:103C60000013401C20612A4639461846FCF7F4FA36
:103C7000E16819B12046BDE8F0410847A068BDE8F9
:103C8000F04100F002B8BDE8F08110B58AB00446FA
:103C900000F08EFC09A904AACDE9002105AB08902B
:103CA00006AA07A914F00DFC08A800F0DDFC02A983
:103CB00020460DF0C3FBBDF8080007990844ADF895
:103CC0000800BDF80A0006990844ADF80A00BDF8DE
:103CD0000C000599401AADF80C00BDF80E000499CF
:103CE000401AADF80E0002A920460DF023FF0AB0DD
:103CF00010BD70B50C46054600F0FEF8A8682168B6
:103D0000C16261680163A1684163490707D5D0E9D1
:103D10000021C0E90012D0E90221C0E90212A18904
:103D200081842169002903D001DC4FF00001016288
:103D300070BD2DE9F0411E4617468846054600F045
:103D4000DBF8AC686822414604F58670FCF784FA1B
:103D50002846B8472846B047286980688047A0624F
:103D6000BDE8F08110B5044600F0C6F8A06811491E
:103D7000144AC0F8AC101049C0F8A8100F49C0F898
:103D8000B0100F49C0F8B8100021C0F8BC1013687B
:103D9000C0F8B4300C4BC0E932315168C0F8C410DF
:103DA00030F8261F21F0030120F82A1B074941643F
:103DB00010BD0000A9B6010809BD010871B60108CF
:103DC00033B001083C02002003B1010891B501089D
:103DD00010B5044600F090F8A46810481021C4F80B
:103DE000E4000F48C4F8E8000E48C4F8EC000E48A0
:103DF000C4F8F0000D48C4F8A0000D48C4F8A400B1
:103E0000D4F8C400C4F8FC00D4F8942020469047AD
:103E10001020A0630748606410BD00001D50010819
:103E2000956F0108393E0008693F0008EDAF0108B1
:103E300069C70108E0C30508F8B5846815460F4650
:103E400094F8260080074CD5D4F8003120469847D6
:103E50000646D4F804312A46394620469847D4F815
:103E6000983005461BB10022012120469847206961
:103E7000B04201DD012000E00020A169B14201DA79
:103E8000012100E0002108436169A94201DD01210F
:103E900000E000210843E169A94201DA012100E0C4
:103EA000002108430AD060680022401E0090236869
:103EB000D4F8A870114620465B1EB847D4F8AC3041
:103EC0002A46314620469847D4F8A0102046884715
:103ED000D4F8983005466BB101220021204698475E
:103EE00008E0D4F8AC3020469847D4F8A01020461B
:103EF000884705462846F8BD70B504468068002806
:103F000012D14FF4BA75284600F0C4FA2A460021AF
:103F1000A06004F040F9A0680221C184012104647A
:103F200001620249C0F8081170BD0000313F00086D
:103F300010B590B0044620220A496846FCF78CF977
:103F400008492022203108A8FCF786F9606B5DF84B
:103F50002010C4F8001108A951F82000C4F8040189
:103F600010B010BD383805082DE9F843846898462C
:103F7000154694F826000F46800740D5D4F8003146
:103F8000204698470646D4F804312A46394620464A
:103F9000984705462069B04201DD012000E000207D
:103FA000A169B14201DA012100E000210843616901
:103FB000A94201DD012100E000210843E169A94295
:103FC00001DA012100E0002108430AD060680022E4
:103FD000401E00902368D4F8A870114620465B1E4E
:103FE000B847D4F8AC302A46314620469847D4F832
:103FF000A42001B041462046BDE8F0431047D4F864
:10400000AC30F2E72DE9F04FDFF828B191B04FF076
:10401000FF35DBF80030B3F922100691DE69B3F901
:1040200024A0F469A189814206D8E289824203D39F
:10403000471AD4F8008012E0D4E90181002970D039
:104040000A8882426DD84D8885426AD3801A82B22E
:10405000486800EB8200B0F90070B0F90250781C9B
:104060005FD0307EA27C014600FB02F9207CCDE9C6
:104070000710B3F92A60304605F066FAC0B20E9018
:10408000DBF8001007FB0980A37C8A6B0127CDE9D0
:104090000402CDE90273C869089AC17E807ECDE929
:1040A0000001DDE90603514604F0F6FD681C18D056
:1040B00046F0020005F048FADBF80000A37C05FB9F
:1040C0000981826BCDE90273CDE90412C069089AB7
:1040D000C17E807ECDE90001DDE90603514604F092
:1040E000DBFDDBF800005D46C069417E007E814259
:1040F00014D9022E12D086F0040005F025FA2868A3
:10410000C069027EC37E857E02FB03A1437E089ABE
:104110000698534402FB050204F04AFF0E9805F08E
:1041200013FADBF80000627C418C1144418411B029
:10413000BDE8F08FC801002004480068C069C0696C
:1041400009B1027C0A60407C70470000C801002071
:10415000022008807047C06982898A4202D8C289D9
:104160008A4210D2806880B102888A420DD8438882
:104170008B420AD3406800EB8100A0EB8200B0F9CB
:104180000000002801DB012070470020704700007C
:104190002DE9F0432F4C034687B020681946B0F94B
:1041A0002A80C069C06900F082F800284ED04168BA
:1041B0000088181A01EBC0054046AE7805F0C4F936
:1041C000814620686A680123816BCDE90236CDE91A
:1041D0000421C169CB7E8A7ECDE900230B7EB0F934
:1041E00024102A78B0F9220004F056FD2068C06936
:1041F000477E067EB7421DD9C07E47434643B8F18D
:10420000020F17D001F0FDFA804601F0C3FA02F068
:10421000B8FA21682A78CB69B1F92200B1F92410E3
:10422000DB7E02FB0302CB19314404F0C1FE4046A1
:1042300002F0A7FA484605F087F920686A78C36952
:10424000B0F922109B7E02FB0311418407B0BDE848
:10425000F0830000C801002030B50E4C05460B4627
:1042600020682946C069C06900F021F8002810D0F4
:104270004168008824682A1A0120E46900EBC20022
:10428000085CA47E6043002B03D011F83210614318
:10429000196030BDC801002001200880704700B5BA
:1042A000C06900F004F8002800D0012000BD06E03D
:1042B00002888A4202D842888A4202D28068002854
:1042C000F6D170472DE9F0410025154E154C18E048
:1042D0002069C5EB051700EBC7007022001D31688F
:1042E000FBF7BAFF2069002140F8371000EBC70048
:1042F00000F10C018161011D0A1DC0E90F126D1C46
:104300004164A0688542E3DB14F092F92169C0EBB7
:10431000001001EBC000001D3060BDE8F08100001E
:10432000C80100201005002070B50F490D48086035
:10433000084603F07FFE0C4C143CA068C0EB001054
:10434000C500284600F0A6F82A460021206103F0A7
:1043500022FF4FF0FF30206002F0FCFDBDE870400E
:1043600014F066B9D594010824050020F8B50C00B6
:1043700005460FD001F078FB204600F017F8060044
:1043800010D000F015F9224600902DB12946FBF718
:1043900063FF04E00020F8BD002103F0FCFE684646
:1043A00000F062F902F06EFD3046F8BD10B5040071
:1043B00009D001F059FB20460FF004F8044602F042
:1043C00061FD204610BD002010BD38B5054601F046
:1043D0004BFB2846FFF7EAFF040009D000F0E8F89D
:1043E0002A460021009003F0D6FE684600F03CF912
:1043F00002F048FD204638BD024A106021F003005B
:1044000050607047A882012010B5040016D001F05A
:104410002BFB0B48406B10F8341059B1022909D21C
:10442000042101EBC401415848680EF0DBFD204631
:1044300016F0C8FDBDE8104002F024BD10BD00001C
:10444000E8810120002805D0034AD16B016001B149
:104450004860D06370470000E881012010B5044631
:1044600001F002FB2068FFF7CFFF00202060BDE8CD
:10447000104002F007BD000070B50D46064600244E
:1044800005E000BF06EB8400FFF7E8FF641CAC42C8
:10449000F8DB70BD2DE9F041044614F0B1FA28486C
:1044A000E41C24F00305016C2D1DA94200D90D4622
:1044B000C46B13E054F8042CAA420ED184B12168D5
:1044C00009B162684A60616809B122680A60C26B1A
:1044D000A24231D12168C1632EE02468002CE9D1C9
:1044E0008046816BC0680F1857F8040C3E1A30687C
:1044F00038B1002016F080FE57F8040C3E1A3068E0
:10450000D0B97068A84217DB3044441B3046241DE4
:1045100016F02AFED8F80C10491BC8F80C10D8F871
:1045200014102944C8F814107068401B02D031469A
:104530000EF058FD44F8045C2046BDE8F081000010
:10454000E881012010B5002414F05AFA0C490F201C
:1045500001EBC002526C1AB101EBC000406C08E0E4
:10456000401EF5D508E04168A14200D90C4680689C
:1045700010B180680028F6D1A4F10C0010BD000035
:10458000E8810120002138B10449042202EBC00077
:10459000496B085841680C3908467047E88101208A
:1045A00002488169491C816170470000E88101204F
:1045B0000549CA69521CCA61496B01EBC0010A78FE
:1045C000521C0A7000F068B8E88101207CB50646EC
:1045D0000C460846FFF7EAFE050020D0FEB1304643
:1045E000FFF7D0FFA04200DA044601F03DFA28466A
:1045F000FFF7DEFF00903046FFF7DAFF014601903B
:1046000022460098FBF728FE684600F02DF801A826
:1046100000F02AF83046FFF7F7FE02F033FC284698
:104620007CBD000010B501F01FFAFFF78BFF64227C
:104630000849B0F5800F04D990FBF2F4086A4443AE
:1046400003E0096A4143B1FBF2F402F01BFC20468F
:1046500010BD0000E881012002488169491E816186
:1046600070470000E88101200A4902684B6B52F84C
:10467000082C03EBC2021378022B03D3CB690BB1D6
:104680005B1ECB611178491E117000210160084644
:1046900070470000E8810120002806D00349042269
:1046A00002EBC000496B085808307047E8810120D0
:1046B0002DE9FC414FF000060B465FEA0008344646
:1046C0002BD032B111461846FFF750FE060000D13C
:1046D00001244046FFF76CFF009007884568684654
:1046E000FFF7C2FFCCB9B9002846091DFFF76EFFDE
:1046F000050015D0FFF75CFF019040F8276001A886
:10470000FFF7B2FF4046FFF753FF00904560018876
:10471000491C01806846FFF7A7FF2046BDE8FC81E1
:104720003046FFF771FE0124F7E70820FFF74DBE82
:104730007CB5050023D0FFF73BFF00904068C0B177
:10474000FFF736FF0024019005E0019800EB84009C
:10475000FFF784FE641C00980088A042F5DC01A8E5
:10476000FFF782FF0098001DFFF778FE00990020F8
:1047700008806846FFF778FF2846FFF745FE7CBDB6
:104780007CB50C46FFF714FF00900188A14220D9A8
:104790004568F5B101F068F92846FFF709FF019077
:1047A00000EB8400FFF75AFE00990888401E80B293
:1047B0000880401E019905E001EB8402526841F82F
:1047C0002420641C8442F7DD01A8FFF74DFF02F0AE
:1047D00059FB6846FFF748FF7CBD38B5002430B16F
:1047E000FFF7E6FE009004886846FFF73DFF20468D
:1047F00038BD38B50D46002448B1FFF7D9FE29462B
:10480000009000F04CF804466846FFF72DFF204664
:1048100038BD38B50D46002448B1FFF7C9FE29461A
:10482000009000F04EF804466846FFF71DFF204652
:1048300038BD2DE9FF4107460E46154600241046B7
:10484000FFF7C3FD009030B33846FFF7B1FE3146A5
:10485000019000F036F802900098FFF7A9FE2A4672
:1048600003900299FBF7F8FC02A8FFF7FDFE03A8EE
:10487000FFF7FAFEDDE90020314600F02CF818B110
:104880006846FFF7EBFD03E00098FFF791FE044652
:1048900001A8FFF7E9FE04B02046BDE8F08138B575
:1048A0000D4601880024A94209D9406838B1FFF7B4
:1048B0007FFE009050F825406846FFF7D5FE204661
:1048C00038BD10B50024FFF7EAFF10B1FFF770FE06
:1048D0000446204610BD38B50C46014615460A88E8
:1048E0000120A24210D9496800290DD00846FFF7DF
:1048F0005FFE00EB840400902046FFF7AFFD6846A2
:104900002560FFF7B1FE002038BD70B50C460546A6
:1049100001F0E0F8C1B223462846BDE8704000220D
:10492000AFF30080F0B52D271C68B0F1004F08D020
:10493000002600280DDA651C1D6027704042012406
:1049400008E0651C01261D606FF000402770491EBD
:1049500001E00024091BC9B22AB3491EC9B222E0F2
:104960000C46491EC9B2944205D1124C27781C68E6
:10497000651C1D602770104C54F8215090FBF5F415
:10498000E4B20A2C11D804FB150011B90EB1641C55
:10499000E4B20A2C02D10124491CC9B21D686F1C63
:1049A00030341F602C700029DAD11968002008709B
:1049B000F0BD0000BC01002044D1050810B500285E
:1049C00007DD0A682B24531C0B6014700968002251
:1049D0000A7010BD10B5044601F046F8044904EB16
:1049E000840001EB8000447902F04CFA204610BDAF
:1049F000848301202DE9FC5F8946044601F034F8E8
:104A0000484600F00BFF2C4E09EB8907824656F80A
:104A10002700019029484FF00108016841B9274952
:104A2000C0F80080091D26480860084603F002FB14
:104A3000214A09EB8901BAF1000002EB81051BD084
:104A400001F078FE83464FF07F4001F08FFE00F0CA
:104A500093F800221146206800F0C2FB20684288CB
:104A60000188504601F0D6FE46F8274085F80580BB
:104A7000584601F05FFE17E046F8274085F80580AC
:104A80002869464618B101F085FD0020286174B1FF
:104A90000096E868A1684B46421AA8686168411A06
:104AA000206801F0D1FD2861484617F0A1FA02F014
:104AB000E9F90198BDE8FC9F84830120EC04002003
:104AC000BD94010870B514460D46064600F0CCFFB3
:104AD000204600F0A3FE0300174804EB840109D030
:104AE00050F8210041688068711A2A1A184601F0AE
:104AF00081FE1CE000EB8104A268B24201D00122D9
:104B000000E00022E368AB4201D0012300E0002373
:104B10001A430CD0236943B150F8210081684068E2
:104B20006A1A311A184601F05AFDC4E90265BDE857
:104B3000704002F0A7B900008483012010B5C2B212
:104B4000CBB2D21A00D5524293B25B43C0F30722D4
:104B5000C1F30724121B00D55242000C92B2A0EB05
:104B6000114002FB023200B2002801DA404200B2DA
:104B700080B200FB002010BD10B50021084600F0F7
:104B8000EBFE43F6FF725042BDE81040134601466B
:104B9000AFF300802DE9FC411C4615460E46074642
:104BA00000F062FF042004F0CFFC80461248C06889
:104BB000C16C006D0F4406440D440444ADF8007010
:104BC000ADF80450ADF80260ADF8064068460DF04F
:104BD00073FD07E023462A463146384604F0E8F9DB
:104BE0000DF01EFD0028F5D1404604F0ADFC02F0AA
:104BF00049F9BDE8FC810000BC010020B0F9063095
:104C0000B0F90420B0F90210B0F90000FFF7C2BFFC
:104C10002DE9F8431C00DDE9089816460F460546C5
:104C200002D10CF089FB044600962E6843464A46A2
:104C300021462846B047061E39D00CF072FB81464B
:104C4000698A30460BF038FE30460DF0B2FB48461C
:104C50000DF0AFFB4FF000080CE000BFCDF8008076
:104C600055F81CCF00231A4649462846E04700B3B2
:104C70000DF09FFB7F1E002FF0DC1D2148460DF03C
:104C80006AF9601C12D000F0EFFE0CF099FB30B115
:104C9000FFF702FD8469B44201D02000F8D1B4428C
:104CA00002D030460DF070FA02F0ECF83046BDE864
:104CB000F88330460CF024FA0020F8E72DE9F041A3
:104CC0001C4616460D460746022B02DB0020BDE8B7
:104CD000F0811C20FFF7DEFB0028F8D00DB1056144
:104CE0000AE0094A52F8241009B905E011460A6899
:104CF000002AFBD10969016184618682002101607B
:104D00004160C0E90217E2E7E001002070B51D46EE
:104D1000FFF7D4FF040009D000F00EF8E068006847
:104D200020B90348006800EB85008465204670BD0B
:104D3000C8010020FFF786BB70B590B38269022AD4
:104D400030DA1E4C54F8221019B944F8220032E02F
:104D500019464B68002BFBD106E0CB68C5681B6881
:104D60002D68AB4203DD09680029F6D11AE0C1B114
:104D7000CB68C6681B683668B3420CD1838A012BA6
:104D800005D008E01946DB681B68AB4203DB0B6803
:104D9000002BF7D129B14B6833B118604A684260E3
:104DA00004E0FFE7012070BD44F82200486088421B
:104DB00000D100210160002070BD0000E001002052
:104DC00010B503E00468FFF7B7FF20460028F9D1CB
:104DD00010BD00000A4A816952F82130834202D195
:104DE000036842F82130416809B102680A6001682D
:104DF00009B142684A6000210160416070470000CB
:104E0000E001002000207047022801DB00207047ED
:104E1000054951F8200004E0C16809680029F6D06E
:104E200000680028F8D17047E00100202DE9F84320
:104E30001D461646884604000CD0FFF7B9FB0090CB
:104E4000006807686846FFF70FFC2B46324641466C
:104E50002046B847BDE8F88338B504004FF000009D
:104E60000AD02046FFF7A4FB00900068456868461A
:104E7000FFF7FAFB2046A84738BD38B504004FF0CD
:104E800000000AD02046FFF793FB00900068856879
:104E90006846FFF7E9FB2046A84738BD1FB503ABBE
:104EA000CDF80CD0FFF73EFD684600F02DF81FBD91
:104EB00000220FF019B8000010B500F0D5FD00F089
:104EC000C5FC054909688A8C10448884088C48848C
:104ED000BDE8104001F0D6BFC80100207FB50C46E8
:104EE0001546CDF80CD003A9FFF768FD002801DDB9
:104EF000641EE4B203AB2A462146FFF713FD684661
:104F000000F002F87FBD00002DE9FC4706005FD0ED
:104F100000F0AAFD00F09AFC3C4C81462068B0F9F4
:104F2000228000F0E5FC216807468A8CD01B88842B
:104F300041E000BF47F6FF71304602F00FFF8246A6
:104F40000146304602F0E0FE2168054691F82C004B
:104F500000F00300012841D002283BD000204A8CF9
:104F6000101A4884ADF800006A1E1044ADF8040021
:104F7000888CADF80200A9F101010844ADF80600E3
:104F80006A465146304602F0E1F92168BDF8020058
:104F900088845146304601F063FE064430780A2882
:104FA0001ED00D281CD0BDF800002168284448847C
:104FB000307818B1761C30780028BBD12068818CFD
:104FC00039448184818D21F00301818501F05AFFEC
:104FD000BDE8FC8705EBD5704010C0E72846BEE76A
:104FE000206890F82C1001F0030101290BD0022950
:104FF00009D0018C418431780A29D9D1828C02EB05
:1050000009018184D4E7A0F82280F4E7C8010020D8
:1050100070B514460D46064600F026FD05480068AA
:10502000458484843046FFF76FFFBDE8704001F08F
:1050300029BF0000C80100202DE9F04107460A48B9
:1050400015460E460068B0F92C0040F0020001F051
:105050003BFC04462A4631463846FFF7D9FF204636
:10506000BDE8F04101F030BCC801002047F6FF73F5
:10507000AFF300802DE9FC411F4690460D46060027
:105080004FF000041AD000F0EFFC65B128460DF097
:1050900027F9040007D002462946684602F0CBFEF5
:1050A00068460DF01DF93B4642462946304602F05F
:1050B000A5F920460DF014F901F0E4FEBDE8FC81ED
:1050C0002DE9FF4F87B09046894607007DD000F05C
:1050D000CBFCD9F80040D9F8045021B228B2401ACC
:1050E000401C029000F0B2FB064618F00C0F1ED0D8
:1050F00038460A9A029901F0FFFE08F00C010429D3
:1051000004D0082902D00C2911D104E0291400FB95
:105110001610401C09E02114C1EB254200FB1620AB
:10512000401C00EBD07001EB600060F31F44484668
:105130000DF0D6F85FEA000B09D00246494604A8F4
:10514000CDE9044502F077FE04A80DF0C9F8A6F1F8
:10515000010A38460A9A029902F0ECFF03900AEB22
:10516000244060F31F45CDE900453846039902F01D
:10517000CBFD18F003010ED001292CD002290ED14D
:10518000B9F90420B9F90010521A101A00EBD070C6
:1051900001EB600001E0B9F80000ADF800006A46DC
:1051A0003846039902F0D2F838460A9A029902F07A
:1051B000B7FF074406EB244060F31F44387800280B
:1051C000C7D158460DF08CF800E001E001F05AFE1E
:1051D0000BB0BDE8F08FB9F80410081A401CDCE7EA
:1051E0007CB514460D46064600F03EFC11480068AA
:1051F000C16C006D0D4404443188681E0844ADF84C
:105200000400ADF800507188601E0844ADF8060037
:10521000ADF8024068460DF04FFA06E022462946F6
:105220003046FDF7ADFE0DF0FBF90028F6D101F098
:1052300029FE7CBDC80100201CB50A46014668460F
:1052400002F0EBFE00F010FC2548BDF800100068ED
:1052500030F84C2F1144ADF80010BDF802108288D0
:105260001144ADF80210BDF8041002881144ADF8E5
:105270000410BDF8061080880844ADF806006846A2
:105280000DF01AFA27E000BFBDF900400BE000BFA7
:10529000BDF90210204603F02DFEBDF90610204690
:1052A00003F028FEA41CBDF90400A042F0DABDF909
:1052B00002400AE0BDF90000214603F01BFEBDF9E3
:1052C0000400214603F016FEA41CBDF90600A0420E
:1052D000F0DA0DF0A5F90028D6D101F0D3FD1CBD00
:1052E000C80100202DE9F04F87B09B46DDE91098FA
:1052F00092460C46054600F0B7FB16480168C86C9C
:10530000096D47190E1900EB0A0501EB0B04ADF806
:105310001070ADF81450ADF81260ADF8164004A846
:105320000DF0CAF988B1DFF830B04FF0000ACDE9CE
:105330000098CDE902BA2B4622463946304610F095
:105340000DFE0DF06DF90028F1D101F09BFD07B0C5
:10535000BDE8F08FC80100205D8F00082DE9F04FF7
:1053600087B09B46DDE9109892460C46054600F052
:105370007BFB16480168C86C096D47190E1900EBD4
:105380000A0501EB0B04ADF81070ADF81450ADF840
:105390001260ADF8164004A80DF08EF988B1DFF860
:1053A00030B04FF0010ACDE90098CDE902BA2346AA
:1053B0002A463146384610F0D1FD0DF031F900286B
:1053C000F1D101F05FFD07B0BDE8F08FC80100200A
:1053D0009D8E00082DE9FC4114460D46064600F05E
:1053E00043FB114F3968C86C096D054404440E44F1
:1053F000ADF80050ADF80440ADF80260ADF80660BD
:1054000068460DF059F908E0386822463146406E8A
:105410000368284698470DF003F90028F4D101F0FD
:1054200031FDBDE8FC810000C80100202DE9F041FC
:105430001C4615460E46074600F016FB0C48016850
:10544000C86C096D074405440E440C4400200DF05F
:1054500033F907E023462A4631463846FDF7DEFD9C
:105460000DF0DEF80028F5D1BDE8F04101F00ABDED
:10547000C80100207CB50C46064600F0F5FA0F4D39
:105480002868C16C006D0E440444ADF80460ADF8AA
:105490000060ADF80640ADF8024068460DF00CF92A
:1054A00007E028682146406E4268304690470DF07C
:1054B000B7F80028F5D101F0E5FC7CBDC80100205B
:1054C0002DE9FC411C4616460D46074600F0CCFA75
:1054D0001A480168087ECA6C096D17440D440C44D3
:1054E000401E391A1644ADF800103118ADF80410FA
:1054F000291A2044ADF80600ADF8021068460DF0F8
:10550000DBF815E032462946384603F0C7FC324640
:105510002146384603F0C2FC621E691C384603F07F
:105520001DFD621E691C304603F018FD0DF078F871
:105530000028E7D101F0A6FCBDE8FC81C8010020ED
:105540007CB514460D46064600F08EFA0F480068FA
:10555000C16C006D0E4405440444ADF80060ADF824
:105560000460ADF80250ADF8064068460DF0A4F8AE
:1055700006E022462946304603F0F0FC0DF050F8D4
:105580000028F6D101F07EFC7CBD0000C80100209F
:1055900070B50C46054600F04BF910B10121C0E989
:1055A000001400F061FA28460CF0BCFFBDE8704022
:1055B00001F068BC10B5002400E0012400F004F8FC
:1055C0000028FAD1204610BD094810B50068002413
:1055D00010B1804700B101240BF022FE00B101247C
:1055E0000448006810B1804700B10124204610BD76
:1055F000EC010020E80100201CB500210091019180
:10560000694601F0CFF804E0FFF7D4FF08B901F0D4
:1056100043FC00980028F7D001981CBD7CB5DDE95B
:105620000645CDE90045FFF7F3FABDE87C40FFF7FA
:10563000E3BF000070B516460C46054600F014FAAC
:105640000B480068C16C006D0D44044400200DF04F
:1056500033F806E0324621462846FDF777FE0CF087
:10566000DFFF0028F6D1BDE8704001F00BBC000060
:10567000C80100202DE9FC411C4615460E46074690
:1056800000F0F2F910480068C16C006D0F44064448
:105690000D440444ADF80070ADF80450ADF802605C
:1056A000ADF8064068460DF007F807E023462A46A5
:1056B0003146384603F07CFC0CF0B2FF0028F5D1EF
:1056C00001F0E0FBBDE8FC81C8010020B0F9063024
:1056D000B0F90420B0F90210B0F90000FFF7CABF1A
:1056E00008B50B46002805D0009281888268C088E2
:1056F00000F001F808BD10B50828029C30D008DC85
:1057000004FB01F401280AD0022813D0042804D194
:105710001CE0102828D020282CD0002010BD04EB3D
:10572000D30003F00701105CC1F10701C84000F08D
:10573000010010BD04EB93000621105C01EA430157
:10574000C1F10601C84000F0030010BD04EB530096
:10575000D907105C02D000F00F0010BD000910BD89
:1057600004FB0130105C10BD481004FB003032F81F
:10577000100010BD881004FB003052F8200010BD4E
:10578000034951F82000C1688A6A082110470000C7
:10579000E001002010B500F067F903F039FC03F0D8
:1057A00019FD044601F06EFB204610BD10B50446FD
:1057B00000F05AF9054800210068C0694268204697
:1057C0009047044601F05EFB204610BDC801002052
:1057D00070B50C46054600F047F9064821460068BA
:1057E000C069426828469047044601F04BFB2046BA
:1057F00070BD0000C8010020002801D00BF06EBD74
:10580000704710B500F030F903F00AFC03F0E2FC39
:10581000044601F037FB204610BD0000002102289D
:1058200002D2024951F820100846704708050020AE
:105830001FB500210191029103912A21009169462F
:105840000CF07AFB039804B010BD000010B500F016
:105850000BF904480068C069447E01F013FB204640
:1058600010BD0000C801002010B500F0FDF802F0E6
:1058700041FA044601F006FB204610BD70B51446FF
:105880000D46064600F0F0F822462946304603F061
:1058900033FC10B1002028602060BDE8704001F0AA
:1058A000F1BA000010B500F0DFF803480068847E0C
:1058B00001F0E8FA204610BDC801002070B50C4682
:1058C000054600F0D1F82146284602F071FABDE8FD
:1058D000704001F0D7BA10B5044602F05BFA0146F9
:1058E0002046BDE8104002F00FBA01F02EBB0000C8
:1058F00010B5002400F0B8F80B48006890F82C10A0
:1059000001F00C01042904D0082906D00C2907D184
:1059100003E0C069047E641E02E0C069007E4408A2
:1059200001F0B0FA204610BDC8010020407E70474B
:10593000017EC07E48437047024951F8200000694B
:1059400000687047E0010020024951F8200000691A
:1059500040687047E001002070B50D46044600F035
:1059600083F8204612F0EAFE0446284612F0EEFEC6
:10597000044301F087FA204670BD00002DE9F04194
:105980001948016821F0010101601848012585606E
:105990001749016000681749884200D0FEE701F00E
:1059A00005FC154E2E20307001F0D3FA134812F08A
:1059B000EDFF1FF005FD074603F0C6FB10B103F035
:1059C000D7FB38B903F0DDFB044603F0C6FB2146E4
:1059D00003F0B4FD0021084600F048FF0CF040F849
:1059E00075703846BDE8F081002000E000300240CC
:1059F000C2A507F4CDB5E8B5BC010020B4820120F2
:105A00002DE9FC411C4615460E46074600F02CF8D1
:105A1000012000F0D2FE804612480068C16C006D83
:105A20000F4406440D440444ADF80070ADF8045032
:105A3000ADF80260ADF8064068460CF03DFE07E0A8
:105A400023462A463146384603F0B2FA0CF0E8FD08
:105A50000028F5D1404600F0B0FE01F013FABDE891
:105A6000FC810000C801002070B5184CE06820B12E
:105A700001F067FA6168884204D001F07FFA01F012
:105A800060FA6060E068401CE06001281CD112F000
:105A9000CFFD05462068854216D0002813DBFFF7AE
:105AA000B1F901462068C0EB0012206900EBC20288
:105AB0005167C5EB0511064A00EBC100011D1160DD
:105AC000406FFFF77DF9256070BD000010050020D4
:105AD000C801002010B5011E01DD024600E04A4267
